:100000000C946E010C9480010C9480010C94792E58
:100010000C943F2E0C9480010C9480010C94800170
:100020000C9480010C9480010C9480010C94C52EDA
:100030000C9480010C9480010C9480010C9480013C
:100040000C94A82E0C9480010C9427310C94C73189
:100050000C9480010C9480010C9480010C9480011C
:100060000C9480010C948001084AD73B3BCE016E72
:1000700084BCBFFDC12F3D6C74319ABD56833DDAFF
:100080003D00C77F11BED9E4BB4C3E916BAAAABE0E
:10009000000000803F05A84CCDB2D44EB93836A937
:1000A000020C50B9918688083CA6AAAA2ABE000074
:1000B00000803F000D0A4772626C20312E316820AB
:1000C0005B27242720666F722068656C705D0D0ABF
:1000D00000244E005B4F50543A005B5645523A3173
:1000E0002E31682E32303236303530313A005B54A2
:1000F0004C4F3A005B4739323A0033300032380017
:100100005B4700204700204D002053002046002080
:10011000540033382E005B47433A47005B484C504D
:100120003A242420242320244720244920244E201C
:1001300024783D76616C20244E783D6C696E652094
:10014000244A3D6C696E652024534C502024432082
:100150002458202448207E2021203F206374726C84
:100160002D785D0D0A00414C41524D3A007C413AD8
:10017000007C4F763A007C57434F3A007C506E3AF1
:10018000007C46533A007C42663A007C57506F73BD
:100190003A007C4D506F733A00536C6565700044B3
:1001A0006F6F723A00436865636B00416C61726DFA
:1001B00000486F6D65004A6F6700486F6C643A00D5
:1001C00052756E0049646C650000007A4300007A45
:1001D0004300007A430000FA430000FA430000FAAB
:1001E0004300A00C4700A00C4700A00C47000048AB
:1001F000C3000048C3000048C30A000019010AD721
:10020000233C6F12033B00007A4400000000000012
:100210000000C8410000FA43FA000000803F0000DF
:10022000000000000000000000000D0A005B5052BA
:10023000423A006572726F723A006F6B0D0A00539A
:100240006C656570696E6700526573746F72696E74
:1002500067207370696E646C6500526573746F72A9
:10026000696E672064656661756C74730050676DB4
:1002700020456E6400436865636B204C696D69744A
:100280007300436865636B20446F6F720044697349
:1002900061626C656400456E61626C656400436117
:1002A0007574696F6E3A20556E6C6F636B65640090
:1002B000272448277C2724582720746F20756E6CCC
:1002C0006F636B00526573657420746F20636F6E8B
:1002D00074696E7565005B4D53473A0011241FBE6B
:1002E000CFEFD8E0DEBFCDBF27E0A0E0B1E001C096
:1002F0001D92AC39B207E1F70E94F1310C94683CD1
:100300000C9400008F929F92AF92BF92CF92DF9297
:10031000EF92FF920F931F93CF93DF937C016B01BA
:10032000DC01EC91F0E0E45BF84F8081EF018D326D
:1003300029F52296818101E0912CF0E010E020E087
:1003400030E0A9015E01E0EDE80FEA3018F5FF5F4B
:10035000F930E0F491101150A5E0B0E00E94413C6A
:100360009B01AC01220F331F441F551F2E0F311D5F
:10037000411D511D2196D5018C91E4CF8B3219F08E
:10038000219600E0D9CF22968181FBCF9110F2CF48
:100390001F5FF0CFEE3F29F4911003C0992493948E
:1003A000E9CFFF23F9F0CA01B9010E9440394B019E
:1003B0005C0120E030E0A9010E948E3881112BC041
:1003C000002309F445C0B7FAB094B7F8B094F60129
:1003D00080829182A282B382CC54D740C150F7016F
:1003E000C083F1E08F2FDF91CF911F910F91FF908C
:1003F000EF90DF90CF90BF90AF909F908F90089537
:100400002AE037ED43E25CE3C501B4010E94F03A13
:100410004B015C011E5F1F3F9CF31F3F59F42DEC05
:100420003CEC4CEC5DE3C501B4010E94F03A4B0199
:100430005C01C6CF112321F220E030E040E251E41C
:10044000C501B4010E94F03A4B015C011150F2CF9A
:10045000D6018D929D92AD92BC921397BDCF2FB7CE
:10046000F89490914406892B809344062FBF0895F9
:100470002FB7F89490914306892B809343062FBFA2
:1004800008959FB7F894809342069FBF08959FB741
:10049000F8942091410680958223809341069FBF66
:1004A00008952FB7F89490914106892B80934106C7
:1004B0002FBF0895AF92BF92CF92DF92EF92FF923B
:1004C0000F931F93CF93DF93EC0105E916E05C01D6
:1004D0008CE0A80EB11CC990D990E990F99020E069
:1004E00030E0A901C701B6010E94B03A1816DCF04D
:1004F000F80121913191419151918F01C701B601CC
:100500000E948E3887FD0FC0CA15DB0521F780E0F9
:10051000DF91CF911F910F91FF90EF90DF90CF90DF
:10052000BF90AF90089581E0F3CF8F929F92AF92EA
:10053000BF92CF92DF92EF92FF920F931F93CF93D0
:10054000DF93EB0121E7E22E26E0F22E8C016B0116
:100550008CE0C80ED11C6991799189919991F7012C
:1005600081909190A190B1907F010E944239A501A4
:1005700094010E949838F80161937193819391934B
:100580008F01CC15DD0539F7DF91CF911F910F91C8
:10059000FF90EF90DF90CF90BF90AF909F908F90A3
:1005A000089596B19095892F877039F082E091FF78
:1005B00080E090FD816092FD846008951092450670
:1005C0009091B60697FD03C090E29093450688236C
:1005D00031F08091450690E2892780934506089581
:1005E00093B18091B60686FF0BC0967159F091FBCE
:1005F000882780F992FD8260907129F08C600895BF
:100600009095F3CF80E00895EBE6F0E08081897E5D
:100610008083E8E6F0E080818E7F8083089584B156
:10062000897E84B985B1866185B98091B60683FFDC
:100630000BC080916B00866180936B008091680095
:1006400081608093680008950C9404036F927F92F8
:100650008F929F92AF92BF92CF92DF92EF92FF92D2
:100660000F931F93CF93DF93EB018C015B018CE021
:10067000A80EB11C89E9682E96E7792E26E9822E0C
:100680003EE7932EC990D990E990F99020E030E0B0
:10069000A901C701B6010E948E388823B9F0A701CD
:1006A0009601F80160817181828193810E9498385E
:1006B0006B017C01E894F7F89301A401C701B6012E
:1006C0000E94B03A181614F0360147010C5F1F4F14
:1006D000CA15DB05B9F6B301C401DF91CF911F91B3
:1006E0000F91FF90EF90DF90CF90BF90AF909F90D1
:1006F0008F907F906F900895E5E2F6E0A6E4B6E073
:100700004D915D916D917C911397408351836283EC
:10071000738314964D915D916D917C9117974483ED
:1007200055836683778318968D919D910D90BC912A
:10073000A02D80879187A287B3870895BF92CF921B
:10074000DF92EF92FF920F931F93CF93DF937C0181
:10075000FC0102A513A5D4A5C5A5818980FF33C0DE
:100760006091680670E090E080E00E9442392AE0E3
:1007700037ED43E25CE30E94F03A9B01AC01B80123
:100780008D2F9C2F0E94F03A8B01D82FC92F20E08B
:1007900030E040E85FE3B8018D2F9C2F0E94B03A13
:1007A000181624F000E010E0D0E8CFE3B8018D2F58
:1007B0009C2FDF91CF911F910F91FF90EF90DF90D1
:1007C000CF90BF90089582FD17C06091670670E0DA
:1007D00090E080E00E9442392AE037ED43E25CE39A
:1007E0000E94F03A9B01AC01B8018D2F9C2F0E9412
:1007F000F03A8B01D82FC92FF701B6A0C7A0D0A41B
:10080000F1A498014D2F5C2F6B2D7C2D8D2D9F2DEC
:100810000E948E3887FFBBCF0B2D1C2DDD2DCF2DD9
:10082000B6CF8091E30290912406981739F023E324
:10083000829FC00111248C509D4F089590E080E06C
:100840000895F894F999FECF92BD81BD81E08FBBE8
:1008500020B5862F8227082E000C990B50E08623A6
:100860009523892B49F084E16F3F11F060BD84E04E
:100870008FBBF99A789408952617E1F360BD84E25E
:10088000F7CF9F92AF92BF92CF92DF92EF92FF92FB
:100890000F931F93CF93DF935C018A017B01E40EDA
:1008A000F51EEB01912C6C01C61AD70ACE018C0DF6
:1008B0009D1D21E0911007C0292D990C330B232F8A
:1008C000221F2227221F6991962E920E0E94210438
:1008D000CE15DF0559F7692DC501800F911FDF91F6
:1008E000CF911F910F91FF90EF90DF90CF90BF902D
:1008F000AF909F900C9421046AE090E080E00E9409
:10090000210441E650E061E776E081E090E00C945C
:100910004104F999FECF92BD81BD81E08FBB80B5C6
:1009200008959F92AF92BF92CF92DF92EF92FF9283
:100930000F931F93CF93DF935B018A017C01E40E39
:10094000F51EEC01912C6B01C81AD90AC6018C0F57
:100950009D1F0E94890421E0911007C0292D990C48
:10096000330B232F221F2227221F982E920E8993AA
:10097000CE15DF0559F7C501800F911F0E9489042C
:1009800021E030E0891511F030E020E0C901DF916D
:10099000CF911F910F91FF90EF90DF90CF90BF907C
:1009A000AF909F900895CF93DF93C091DF02D091D5
:1009B000E0022097C9F08091B00281608093B0027C
:1009C0006091C6027091C7028091C8029091C902DD
:1009D0009B01AC010E94F03A6A8B7B8B8C8B9D8BC8
:1009E0001092E0021092DF02DF91CF9108952F92D2
:1009F0003F924F925F926F927F928F929F92AF92AF
:100A0000BF92CF92DF92EF92FF920F931F93CF93FB
:100A1000DF9300D000D0CDB7DEB7009124060023CD
:100A200009F486C009833981315039831091E1027C
:100A3000131709F466C0C32ED12CE3E33E9FC00117
:100A400011249C012C503D4F7901F901768887884B
:100A5000908CA18C628D738D848D958D9B01AC01E2
:100A60000E949937F701268D378D40A151A10E9430
:100A7000F03AB62EE72EF82E9B83262F372F482FDD
:100A8000592F672D782D892D9A2D0E948E3887FF3A
:100A900003C0B72C7401AB8283E38C9DF0018D9D64
:100AA000F00D1124EC50FD4F8B2D9E2DAF2DBB81F1
:100AB000828B938BA48BB58BF9818F2FF11101C0A1
:100AC00080E1FF24FA94F80E3090E3021F1133C046
:100AD000131102C00E94D304E3E31E9FC00111243E
:100AE0008C509D4F9A83898333243394310EF0E1E7
:100AF0003F1201C0312C83E3282E031185C01093CF
:100B0000E1020F900F900F900F90DF91CF911F9106
:100B10000F91FF90EF90DF90CF90BF90AF909F909C
:100B20008F907F906F905F904F903F902F9008959F
:100B300020E1298378CF298183E3289F9001112424
:100B40002C503D4F3C832B8323E3E22E8F2C912CA2
:100B5000FE9CC0011124FC01EC50FD4FFA83E98397
:100B6000F11002C090E1F92EFA94F31002C00E9435
:100B7000D304E89CC001E99C900D11249C012C50E9
:100B80003D4F6901F90146885788608C718CA3013B
:100B9000920162897389848995890E948E3888239D
:100BA00039F1F601628D738D848D958D9B01AC01B9
:100BB0000E949937F601268D378D40A151A10E94E0
:100BC000F03AEB81FC8122893389448955890E945E
:100BD00099374B015C01AC019B01C301B2010E943A
:100BE000B03AF60118165CF4828A938AA48AB58A10
:100BF00029813A813C832B831F11A8CF6DCF428A74
:100C0000538A648A758AF4CFC32CD12C329CC001DC
:100C100011249C012C503D4F7901E981FA814288D1
:100C2000538864887588F90182889388A488B58878
:100C3000A5019401C301B2010E948E3887FF26C02E
:100C4000E981FA81628D738D848D958D9B01AC0154
:100C50000E949937E981FA81268D378D40A151A1F3
:100C60000E94F03AA30192010E9499372B013C01A6
:100C7000AC019B01C501B4010E94B03A181634F4CE
:100C8000F701428A538A648A758A132D2C9CF001DD
:100C90002D9CF00D1124EC50FD4F26893789408D95
:100CA000518D62897389848995890E948E3881115A
:100CB00001C0132D3394F0E13F1201C0312CFA82B0
:100CC000E9821BCF3091A206632F2091A306422F09
:100CD00094E030FF90E080E220FF80E061FD9860CA
:100CE00041FD806462FD906142FD80689093F40153
:100CF0008093F5011092F2011092F30133FF03C0CB
:100D000080E18093F20123FF03C088E08093F30128
:100D100008958091B60682FF13C0289A8091F4014D
:100D2000809305028091A1068250990B880F8195CE
:100D30008093040280916F00826080936F00089519
:100D40002898ECCF0E941104892B19F082E00C94B2
:100D500051020895E091040191E09E0F993609F443
:100D600090E020916E01291761F0F0E0EB5FFE4FFB
:100D70008083909304018091C10080628093C100C0
:100D800004C02091410624FFECCF0895CF93DF9358
:100D9000CCE4D7E08991811103C0DF91CF91089510
:100DA0000E94AA06F7CF8F929F92AF92BF92CF92E6
:100DB000DF92EF92FF920F931F93CF93DF93CDB704
:100DC000DEB72D970FB6F894DEBF0FBECDBF6B0117
:100DD0007C01042F20E030E0A9010E948E3887FFBB
:100DE00007C08DE20E94AA06F7FAF094F7F8F09493
:100DF000102F123008F054C000FF0AC020E030E08D
:100E000040E251E4C701B6010E94F03A6B017C0157
:100E100020E030E040E05FE3C701B6010E9499376F
:100E20000E940A3910E03AE0832E912CA12CB12CBB
:100E3000E12FF0E06115710581059105E9F581E08B
:100E400090E08C0F9D1FE80FF91F80E3101708F446
:100E500045C0101309C0E1E0F0E0EC0FFD1FE10F09
:100E6000F11D80E380831F5FEE24E394F12CEC0EF0
:100E7000FD1EE10EF11C111134C02D960FB6F89431
:100E8000DEBF0FBECDBFDF91CF911F910F91FF90BD
:100E9000EF90DF90CF90BF90AF909F908F9008958C
:100EA00020E030E048EC52E4C701B6010E94F03A7D
:100EB0006B017C0112509DCFEE24E394F12CEC0EDB
:100EC000FD1EEE0EFF1EA50194010E94193C605DFF
:100ED000F7016083B901CA011F5FAACF1F5F819329
:100EE000B5CF101303C08EE20E94AA06F7018291CB
:100EF0007F010E94AA061150BECF2091B60640E0A5
:100F000020FF07C02BE832E441E25DE30E94F03AA3
:100F100041E00C94D3062091B60643E020FF07C0C1
:100F20002BE832E441E25DE30E94F03A44E00C94A5
:100F3000D3060F931F93CF938C01C0E0F80161910A
:100F40007191819191918F010E948B07C23019F0AC
:100F50008CE20E94AA06CF5FC33081F7CF911F9128
:100F60000F910895CF93DF93843658F06AE00E9482
:100F7000F93BC0E3C90F6AE00E94F93BD0E3D90F07
:100F800004C0C0E0D0E08A30B0F7805D0E94AA06BD
:100F9000DD2319F08D2F0E94AA06CC2329F08C2F77
:100FA000DF91CF910C94AA06DF91CF910895CF9352
:100FB000DF93EC01FE0184912196811103C0DF9142
:100FC000CF9108950E94AA06F5CF8AE292E00C9490
:100FD000D707CF93C82F83E392E00E94D7078C2FC7
:100FE0000E94B207CF910C94E507811104C08AE3F7
:100FF00092E00C94D7070C94E907CF92DF92EF921E
:10100000FF92CF93DF93D82F6A017B01C22F84E236
:101010000E94AA068D2F0E94B2078DE30E94AA06A5
:101020004C2FC701B6010E94D306DF91CF91FF90EC
:10103000EF90DF90CF900C94E507CF93DF93D82FFC
:10104000C62F84E20E94AA068D2F0E94B2078DE36C
:101050000E94AA068C2F0E94B207DF91CF910C94B8
:10106000E507EF92FF920F931F93CF93DF93609169
:10107000A10670E080E00E941D086091A40670E067
:1010800081E00E941D086091A20670E082E00E944B
:101090001D086091A30670E083E00E941D08609126
:1010A000B60662FB662760F970E084E00E941D08C6
:1010B0006091B60666FB662760F970E085E00E94E5
:1010C0001D088091B606082E000C990B692F661F2B
:1010D0006627661F70E086E00E941D086091A506E5
:1010E00070E08AE00E941D084091A6065091A70674
:1010F0006091A8067091A90623E08BE00E94FD078D
:101100004091AA065091AB066091AC067091AD0675
:1011100023E08CE00E94FD076091B606617070E0EC
:101120008DE00E941D086091B60665FB662760F998
:1011300070E084E10E941D086091B60663FB66279B
:1011400060F970E085E10E941D086091B606629525
:10115000617070E086E10E941D086091B70670E042
:1011600087E10E941D084091B8065091B906609130
:10117000BA067091BB0623E088E10E94FD0740910A
:10118000BC065091BD066091BE067091BF0623E07B
:1011900089E10E94FD076091C0067091C1068AE155
:1011A0000E941D084091C2065091C3066091C4067A
:1011B0007091C50623E08BE10E94FD074091AE06C9
:1011C0005091AF066091B0067091B10620E08EE1BB
:1011D0000E94FD074091B2065091B3066091B4069B
:1011E0007091B50620E08FE10E94FD076091B60680
:1011F0006695617070E080E20E941D0884E6E82E2A
:1012000010E0C1E7D6E0F12C0F2D0E0D123071F178
:10121000E0F4113031F1488159816A817B8123E00A
:10122000802F0E94FD07F394249683E0F812ECCF00
:101230008AE0E80E1F5F86E9E812E3CFDF91CF91E5
:101240001F910F91FF90EF9008951330E1F014304B
:1012500011F7FE01EB5AFF4F40815181628173818A
:10126000DECF4C855D856E857F85D9CF20E030E06F
:1012700041E655E4688D798D8A8D9B8D0E94983862
:10128000AB01BC01CCCF4CA15DA16EA17FA1705878
:10129000C6CF8DE50E94AA060C94E507CF93DF9395
:1012A000CDB7DEB72C970FB6F894DEBF0FBECDBF1B
:1012B0008DE292E00E94D70762E576E0CE010196CA
:1012C0000E949502CE0101960E9499078AE30E942E
:1012D000AA06809164060E94B2070E9449092C96D2
:1012E0000FB6F894DEBF0FBECDBFDF91CF9108954A
:1012F00090916006911105C086FF04C02D9A10924E
:101300006B0608952D98FBCF8093B300811106C022
:101310008091B0008F778093B00008958091B000E5
:101320008068F9CFCF93DF93239AC0EBD0E083E0BE
:10133000888384E08093B1002091B2063091B30697
:101340004091B4065091B5066091AE067091AF061B
:101350008091B0069091B1060E9498379B01AC0134
:1013600060E070E08EE793E40E949838609300019B
:1013700070930101809302019093030188818F771C
:101380008883DF91CF91089566E476E08AEE96E057
:101390000C949502E5E2F6E08CE1DF011D928A955E
:1013A000E9F71092E3021092240681E08093E202B2
:1013B0001092E10208954F925F926F927F92AF92E6
:1013C000BF92CF92DF92EF92FF920F931F93CF9332
:1013D000DF93EC015C012CE0A20EB11C8C01C12C4E
:1013E000D12C7601F80141905190619071908F015C
:1013F00020E030E0A901C301B2010E948E388823A9
:1014000071F0A3019201C301B2010E94F03A9B0165
:10141000AC01C701B6010E9499376B017C010A1526
:101420001B0501F7C701B6010E948F3B6B017C01D0
:10143000AC019B0160E070E080E89FE30E94983877
:101440002B013C0169917991899199915E01F4E0B8
:10145000AF1AB108A30192010E94F03AF50160832E
:10146000718382839383C017D10761F7C701B601E7
:10147000DF91CF911F910F91FF90EF90DF90CF9070
:10148000BF90AF907F906F905F904F9008954F9274
:101490005F926F927F928F929F92AF92BF92CF9204
:1014A000DF92EF92FF926B017C018090B2069090E8
:1014B000B306A090B406B090B5064090AE0650902A
:1014C000AF066090B0067090B106A3019201C5010D
:1014D000B4010E94B03A87FF1BC06091690670E0BA
:1014E00090E080E00E9442392AE037ED43E25CE37D
:1014F0000E94F03AA70196010E94F03A6B017C012C
:10150000AC019B01C301B2010E948E381816B4F0E1
:1015100040926D0650926E0660926F067092700651
:101520008FEFFF90EF90DF90CF90BF90AF909F90A4
:101530008F907F906F905F904F900895A7019601D4
:10154000C501B4010E94B03A87FD1CC020E030E024
:10155000A901C701B6010E948E38811109C01092FD
:101560006D0610926E0610926F0610927006D9CF1B
:1015700080926D0690926E06A0926F06B0927006F1
:1015800081E0CFCFC0926D06D0926E06E0926F06DA
:10159000F0927006A5019401C701B6010E94983728
:1015A000209100013091010140910201509103010D
:1015B0000E94F03A0E947D3920E030E040E85FE38D
:1015C0000E9499370E941139862FABCF9091600607
:1015D000911111C0811110C010926D0610926E060B
:1015E00010926F06109270068091B0008F778093F2
:1015F000B00010926B0608959091B60691FF05C059
:10160000803219F440E050E0BA01CB01BA010E94E7
:10161000470A0E948409EDCF2F923F924F925F922A
:101620006F927F928F929F92AF92BF92CF92DF92F2
:10163000EF92FF920F931F93CF93DF93CDB7DEB757
:10164000C454D1090FB6F894DEBF0FBECDBF3B0125
:1016500000912406202E312C23E3029FA0011124A7
:10166000BA016C507D4F7CAB6BABFB0111922A959C
:10167000E9F7F30140855185FB01418BF301C480FB
:10168000D580E680F780EBA9FCA9C6A6D7A6E0AA7C
:10169000F1AA50FF02C021E022AB9E01275E3F4F1E
:1016A0005CE0F90111925A95E9F741FF09C14CE05C
:1016B000E6E4F6E0D90101900D924A95E1F789AB95
:1016C0009AAB61E776E021967FAF6EAF2197CE01AE
:1016D0000D969EAF8DAF3CAF2BAFEBA9FCA9FAAF37
:1016E000E9AF9E012B5D3F4F3EAB2DAB84EE482E04
:1016F00082E0582E38AF2FAB10E023E3229DC001CB
:10170000239D900D11248C509D4FBC01645F7F4F31
:1017100023967FAF6EAF2397FC0170962596FFAF9F
:10172000EEAF2597E9A9FAA9619171918191919103
:10173000FAABE9AB2196EEADFFAD21978190919088
:10174000A190B1902196FFAFEEAF2197A501940132
:101750000E94F03A0E94BD3AEDADFEAD61937193E7
:1017600081939193FEAFEDAFEBADFCADC190D19005
:10177000E190F190FCAFEBAF6C197D098E099F09E8
:101780009B01AC0197FF07C022273327A901261B25
:10179000370B480B590BE9ADFAAD219331934193C7
:1017A0005193FAAFE9AF2396EEADFFAD2397C0801A
:1017B000D180E280F380C216D306E406F50610F469
:1017C00069017A012396EEADFFAD2397C082D182E5
:1017D000E282F3820E944239A50194010E94983866
:1017E0004B015C01EFA9F8AD81929192A192B19267
:1017F000F8AFEFAB20E030E0A9010E948E388823DB
:1018000019F021E0F201218320E030E0A901C501B7
:10181000B4010E948E3887FF11C090E2112321F09D
:1018200090E8113009F490E42596EEADFFAD2597D0
:101830008081892B80832FEFF20121831F5F3FEF8F
:10184000431A530A133009F06DCF80E0CD28CE281B
:10185000CF2809F4E1C0CE0185960E94DB094B0137
:101860005C0123E3229DC001239D900D1124BC0146
:101870006C507D4F7B01FB01868E978EA0A2B1A29A
:10188000BE016B5D7F4F89E896E00E942603F70159
:10189000628F738F848F958FBE016B5D7F4F8DE755
:1018A00096E00E942603F70166A377A380A791A77D
:1018B000118910FF14C062A773A784A795A71BC046
:1018C00043E3429DF001439DF00D1124EC50FD4F88
:1018D00042A94111F4CE4CE0E5E2F6E0EBCEF30193
:1018E000208131814281538113FDB0C0F70122A7CD
:1018F00033A744A755A78091E302081711F011FF01
:10190000ABC083E3829DF001839DF00D1124EC5068
:10191000FD4F128A138A148A158A12A213A214A2E6
:1019200015A283E3829D8001839D100D11240C502C
:101930001D4FF801818981FD6EC08BA99CA90E9471
:101940009E036B017C0180903D0690903E06A09026
:101950003F06B0904006AC019B01C501B4010E9456
:101960008E3887FF41C1A5019401C501B4010E94D1
:10197000F03AF801668B778B808F918F83E3829D9D
:101980008001839D100D11240C501D4FF80182A081
:1019900093A0A4A0B5A0A501940166897789808D44
:1019A000918D0E94B03A18162CF4F801868A978A15
:1019B000A08EB18EC0923D06D0923E06E0923F06C8
:1019C000F09240068CE0FE01B596A1E3B6E00190EE
:1019D0000D928A95E1F783E3829DF001839DF00DDE
:1019E0001124EC50FD4F82A9811109C08CE0FE0149
:1019F0003D96A5E2B6E001900D928A95E1F78091BF
:101A0000E202809324068F5F803109F480E08093A6
:101A1000E2020E94F70481E0CC5BDF4F0FB6F8943E
:101A2000DEBF0FBECDBFDF91CF911F910F91FF9011
:101A3000EF90DF90CF90BF90AF909F908F907F906E
:101A40006F905F904F903F902F900895C501B40123
:101A50000E94F03AF7012FCF21E336E03AAB29ABF1
:101A60008E010F5F1F4F6DA97EA9645F7F4F7CAF12
:101A70006BAFC12CD12C76010FAB19AFE9A9FAA934
:101A800081909190A190B190FAABE9ABEDA9FEA93C
:101A90004190519061907190FEABEDABA30192012A
:101AA000C501B4010E94F03A9B01AC01C701B60127
:101AB0000E9498376B017C01A5019401C301B2011A
:101AC0000E949837F80161937193819391938F01EC
:101AD0002BAD3CAD6DA97EA92617370779F62FEE01
:101AE0003FEF4FE75FE3C701B6010E94B03A181617
:101AF0004CF483E3829DF001839DF00D1124EC50A2
:101B0000FD4F0BCF2FEE3FEF4FE75FEBC701B60165
:101B10000E948E3887FF11C083E3829DF001839D70
:101B2000F00D1124EC50FD4F89E996E7A6E9BEE7D8
:101B300082A393A3A4A3B5A3F4CE8FA999AD0E94C9
:101B4000DB096FA979AD89E896E00E9426034B0175
:101B50005C01A701960160E070E080E89FE30E94CD
:101B6000983720E030E040E05FE30E94F03A0E94C6
:101B70008F3B6B017C012091A6063091A706409116
:101B8000A8065091A906C501B4010E94F03AA70128
:101B900096010E94F03A4B015C01A701960160E0BA
:101BA00070E080E89FE30E9498379B01AC01C5017B
:101BB000B4010E9498386B017C0120E030E0A9015B
:101BC0000E948E3887FF03C0C12CD12C760183E39D
:101BD000829DF001839DF00D1124EC50FD4FC2A2B7
:101BE000D3A2E4A2F5A29DCEA7019601C701B6013A
:101BF000BECE80916F008D7F80936F0080918100B9
:101C0000887F8160809381001092F6018091A40604
:101C100090915F068F3FA1F420914206211110C0E0
:101C2000903881F490E0019778F481E09091B606C5
:101C300092FF02C091E08927882369F0289A0895CD
:101C4000943081F780E0F2CFEFE9FFE03197F1F7D0
:101C500000C00000E8CF28980895CF93DF930E943A
:101C6000F90DEFEAF2E080E3DF011D928A95E9F7D2
:101C7000C7EFD1E085E2FE0111928A95E9F7109253
:101C8000E0021092DF0210921C021092480281E0E2
:101C900080931D021092F6010E9462068091F50168
:101CA0008F878BB1837E9091F401892B8BB98BB197
:101CB0008F719091F501892B8BB98091F301898BFC
:101CC00088B18F7E9091F201892B88B988B1877F86
:101CD0009091F301892B88B9DF91CF91089580917C
:101CE000410684FD1FC080E10E9451028091B00036
:101CF0008F778093B0002D9890915F06892F8C721A
:101D000021F480916306867069F0943049F48091E3
:101D10004206811103C086E00E9441020C94F90D35
:101D200083E0FACF08952F923F924F925F926F9285
:101D30007F928F929F92AF92BF92CF92DF92EF925B
:101D4000FF920F931F93CF93DF93CDB7DEB7EB973F
:101D50000FB6F894DEBF0FBECDBF8091630680FD45
:101D600053C290911C0280911D02981709F44CC235
:101D70008091DF029091E002892B09F07EC01091E2
:101D8000630612FF5AC28091240623E3829FC0019A
:101D900011248C509D4F9093E0028093DF0240917C
:101DA000DF025091E0025A874987452B09F42CC283
:101DB0000091B00200FF44C21092B0021092C20221
:101DC0001092C3021092C4021092C502A985BA856E
:101DD0005A962D913D914D915C915D9729833A835F
:101DE0004B835C8360E070E080E09FE30E94983862
:101DF0006D837E838F839887E985FA85468C578C1F
:101E000060A071A082889388A488B58811FF11C34F
:101E1000F2E0F093C102A50194010E94F03A9B0107
:101E2000AC01C301B2010E9498376B017C0120E034
:101E300030E0A9010E948E3887FFEAC229813A81E9
:101E40004B815C81CA01B9010E949937A3019201BB
:101E50000E94F03A9B01AC01C501B4010E94983781
:101E60000E948F3B6093CE027093CF028093D0028A
:101E70009093D10218601093630680914802A82FB6
:101E8000B0E0BA8BA98B27E02A9FF0012B9FF00DC1
:101E90001124E25EFD4F8091AF0284834091DF0206
:101EA0005091E0025A874987DA015E96BC91BDA342
:101EB000FA01F78DFEA3DA019096BC91BFA3FA0157
:101EC000F1A1F8A72091BD023091BE024091BF025E
:101ED0005091C0026DA17EA18B2F9F2F0E94983739
:101EE00069AB7AAB8BAB9CAB20E030E0A9010E94E0
:101EF0008E3887FF04C019AA1AAA1BAA1CAA20910F
:101F0000CA022D8B3091CB023E8B4091CC024F8B7D
:101F10005091CD02588F8091D2028D8F9091D30233
:101F20009E8FA091D402AF8FB091D502B8A3E0915B
:101F3000C102ED87F091D602F9A72091D7022AA716
:101F40003091D8023BA74091D9024CA77090C602AD
:101F50006090C7025091C8025BAF8091C9028AAFFE
:101F60009091C2029DA7A091C302AEA7B091C402F6
:101F7000BFA7E091C502E8ABF091CE02FEAB209185
:101F8000CF022FAB3091D00238AF4091D10249AF90
:101F900029A53AA54BA55CA56D8D7E8D8F8D98A149
:101FA0000E948E388111D4C352E05DAB9DA1998F00
:101FB000AEA1AA8FBFA1BB8FE8A5EC8F8EE3C82E80
:101FC00083ECD82E8EE2E82E89E3F82E212C312CDA
:101FD0002101A701960129A33AA34BA35CA35D8528
:101FE000513009F456C4A985BA85513008F4E2C3CA
:101FF000533009F084C45A962D913D914D915C91D6
:102000005D97C701B6010E94F03A4B015C012D8932
:102010003E894F89588D672D762D8BAD9AAD0E94E4
:1020200098379B01AC01C501B4010E94B03A87FD0D
:1020300099C32D8D3E8D4F8D58A16DA17EA18FA18D
:1020400098A50E9498379B01AC010E9499376B01BB
:102050007C012D893E894F89588D672D762D8BAD5A
:102060009AAD0E9499379B01AC01C701B6010E944D
:1020700098386B017C017D886E88BF89BBAFE88D85
:10208000EAAF0D8D1E8DFF8DF98328A12D8331E0E0
:102090003D87A7019601C201B1010E9499371B013A
:1020A0002C0129A13AA14BA15CA10E948E3887FF87
:1020B00093C4A201910169A17AA18BA19CA10E9464
:1020C00098376B017C01980149815D816DA57EA5E2
:1020D0008FA598A90E948E3887FD3DC33D8530931A
:1020E000C102872D962DABADBAAD8093C6029093F9
:1020F000C702A093C802B093C902E0914902F091CF
:102100004A028289811104C09091630693FF31C015
:10211000A985BA8551969C915197907309F47CC416
:102120009E96CD90DD90ED90FC90D1978823B1F0F4
:102130002091DA023091DB024091DC025091DD0205
:10214000672D762D8BAD9AAD0E94F03A9B01AC01C4
:10215000C701B6010E94F03A6B017C01C701B601CC
:102160000E94470A8093DE0280916306877F8093F6
:10217000630627E0E989FA892E9FC0012F9F900D01
:102180001124AC01425E5D4F3A018091DE02DA011A
:1021900016968C932091B9023091BA024091BB02FD
:1021A0005091BC02B80189819D810E94F03A6987F3
:1021B0007A878B879C870E9477386B017C016091BE
:1021C000B5027091B6028091B7029091B8020E9458
:1021D00077384B015C01A70196010E9498370E9455
:1021E00011396D877E878F87988B2D853E85F3010A
:1021F00031832083232B09F01AC48091630681FF69
:1022000016C4816080936306EB960FB6F894DEBF28
:102210000FBECDBFDF91CF911F910F91FF90EF9037
:10222000DF90CF90BF90AF909F908F907F906F90F6
:102230005F904F903F902F9008950E941104ABCD76
:102240008091AF028F5F853009F480E08093AF0208
:10225000282F30E054E1859FC0011124DC01A55BEB
:10226000BD4F7D01B0934A02A0934902E985FA85EA
:10227000808950968C93509786FFB6C0F8E05196AF
:10228000FC93E985FA85D2A890E080E041915191D4
:1022900061917191D701A80FB91F689412F8440F8A
:1022A000551F661F771F1694D1F74D935D936D935D
:1022B0007C93139704968C30910541F744E1429F3B
:1022C000F001439FF00D1124E55BFD4FD38AA985F2
:1022D000BA851C966D917D918D919C911F974B01B4
:1022E0005C0123E0880C991CAA1CBB1C2A95D1F721
:1022F00084869586A686B7860E9440396093B5028B
:102300007093B6028093B7029093B802E985FA857C
:10231000268D378D40A151A10E9498389B01AC01B8
:102320002093B9023093BA024093BB025093BC028F
:1023300060E070E080EA9FE30E9498386093BD02FD
:102340007093BE028093BF029093C0021092B102BC
:102350001092B2021092B3021092B40211FD02C0A8
:1023600003FF45C06091CE027091CF028091D002F0
:102370009091D1026093C6027093C7028093C80205
:102380009093C9029B01AC010E94F03AA985BA85DD
:1023900052966D937D938D939C935597077F0093F1
:1023A000B002D70152961C928091B60681FF06CDED
:1023B000E985FA85818985FF01CD22A533A544A54C
:1023C00055A560E070E080E89FE30E949838609334
:1023D000DA027093DB028093DC029093DD02E1E08D
:1023E000D7015296EC93EACC51961C924ACFE985DC
:1023F000FA8562897389848995890E948F3B6093ED
:10240000C6027093C7028093C8029093C902C9CFD5
:10241000C092C202D092C302E092C402F092C502FE
:102420001092CE021092CF021092D0021092D102DE
:1024300021CD1092C1024092D2025092D3026092FA
:10244000D4027092D50212FF6AC01092CE0210928E
:10245000CF021092D0021092D102C12CD12C760161
:1024600089859A850E949E03698B7A8B8B8B9C8BC6
:102470009B01AC010E94F03A69877A878B879C8721
:10248000A50194010E948E3887FF93C029853A8563
:102490004B855C85C501B4010E9498372D813E8132
:1024A0004F8158850E94F03A9B01AC01C301B201F3
:1024B0000E9498376093D2027093D3028093D40223
:1024C0009093D50220E030E0A9010E948E381816C2
:1024D0000CF449C032E03093C10229813A814B812A
:1024E0005C81CA01B9010E949937A30192010E943F
:1024F000F03A9B01AC01C501B4010E9498370E94DB
:102500008F3B6093CE027093CF028093D002909362
:10251000D1028091B00288608093B002ABCCE09190
:10252000E302EF5FE03109F4E0E080912406C12C82
:10253000D12C76018E1751F023E32E9FF001112448
:10254000EC50FD4FC288D388E488F588C701B601F6
:102550000E948F3B6093CE027093CF028093D00293
:102560009093D1027DCFA701960169857A858B85ED
:102570009C850E9498372D813E814F8158850E940D
:10258000F03A6093D6027093D7028093D80290936A
:10259000D90289899A89AB89BC898093CA029093B0
:1025A000CB02A093CC02B093CD0293E09093C102F2
:1025B00061CCA7019601C501B4010E9498372D8115
:1025C0003E814F8158850E94F03AA30192010E94FA
:1025D000993720E030E040E05FE30E94F03A6D87F9
:1025E0007E878F87988B20E030E0A9010E94B03A67
:1025F00018160CF094C0A30192016D857E858F851D
:1026000098890E948E3887FF88C0A7019601698546
:102610007A858B859C850E9498372D813E814F81DC
:1026200058850E94F03A9B01AC012093D60230936A
:10263000D7024093D8025093D9026D857E858F854D
:1026400098890E94B03A1816BCF529893A894B89B5
:102650005C892093CA023093CB024093CC02509302
:10266000CD02A501940169857A858B859C850E94A0
:102670008E38811104C031E03093C102FBCBA5013B
:10268000940169857A858B859C850E9498372D8178
:102690003E814F8158850E94F03A9B01AC01C301F5
:1026A000B2010E9498376093D2027093D302809354
:1026B000D4029093D502DECB8D859E85AF85B889F7
:1026C0008093D2029093D302A093D402B093D50208
:1026D0008093D6029093D702A093D802B093D902E8
:1026E00029813A814B815C81CA01B9010E949937E5
:1026F0002D853E854F8558890E94F03AA7019601A5
:102700000E9499370E948F3B6093CA027093CB025C
:102710008093CC029093CD02ADCB92E047CF8091D5
:10272000CE029091CF02A091D002B091D10210922E
:10273000D2021092D3021092D4021092D50280934A
:10274000CA029093CB02A093CC02B093CD0292CB5D
:1027500081E08DAB2BCC098F1A8F39813B8F4D8156
:102760004C8F3DCC20E030E040E05FE3C501B40198
:102770000E94F03A9B01AC01672D762D8BAD9AAD8E
:102780000E949837A70196010E94F03A9B01AC0184
:10279000698D7A8D8B8D9C8D0E9498378B018983F2
:1027A0009D83A5019401672D762D8BAD9AAD0E9476
:1027B00098376AC05A962D913D914D915C915D97E5
:1027C000C701B6010E94F03A4B015C0120E030E005
:1027D00040E05FE30E94F03A272D362D4BAD5AAD15
:1027E0000E949937A70196010E94F03A9B01AC0123
:1027F000698D7A8D8B8D9C8D0E9498378B01898392
:102800009D839B01AC016D8D7E8D8F8D98A10E9463
:10281000B03A18168CF52D8D3E8D4F8D58A16DA1B7
:102820007EA18FA198A50E9498379B01AC010E94C0
:1028300099376B017C012D893E894F89588D672D11
:10284000762D8BAD9AAD0E9499379B01AC01C701E3
:10285000B6010E9498386B017C017D886E88BF8923
:10286000BBAFE88DEAAFFDA9FD870D8D1E8D2F8DC5
:10287000298338A13D830DCCA5019401672D762DC8
:102880008BAD9AAD0E949937762E672E8BAF9AAF9B
:1028900000CC2D893E894F89588DC701B6010E9411
:1028A000F03A9B01AC01698D7A8D8B8D9C8D0E94D5
:1028B00098378B0189839D8329A53AA54BA55CA5F3
:1028C0000E948E3887FFE5CB29A53AA54BA55CA5CC
:1028D000698D7A8D8B8D9C8D0E9498372D893E89CC
:1028E0004F89588D0E9498386B017C0109A51AA563
:1028F0004BA549835CA55D8382E08D87CACB5A9640
:102900002D913D914D915C915D97C701B6010E945B
:10291000F03A4B015C01AC019B01672D762D8BAD2C
:102920009AAD0E94B03A181644F520E030E040E03D
:102930005FE3C501B4010E94F03A9B01AC01672D31
:10294000762D8BAD9AAD0E949837A70196010E9413
:10295000F03A9B01AC01698D7A8D8B8D9C8D0E9424
:1029600098378B0189839D832DA53EA54FA558A936
:102970000E94B03A18160CF414CF2DA53EA54FA511
:1029800058A9698D7A8D8B8D9C8D0E9498379B01FB
:10299000AC010E9499376B017C012EA93FA948AD7B
:1029A00059AD672D762D8BAD9AAD0E9499379B015D
:1029B000AC01C701B6010E9498386B017C017EA86A
:1029C0006FA8B8ADBBAFE9ADEAAF0DA51EA5FFA5D9
:1029D000F98328A92D835DCB29A93AA94BA95CA924
:1029E000B80189819D810E94B03A18168CF42EE3BB
:1029F00033EC4EE259E369A17AA18BA19CA10E941C
:102A0000993769A37AA38BA39CA3A201910157CB09
:102A10004D854093C10265CB10926D0610926E06F3
:102A200010926F06109270061092DE029DCB2091DC
:102A3000B1023091B2024091B3025091B402C2018E
:102A4000B1010E9499372B013C0129853A854B85BC
:102A50005C85C501B4010E9498379B01AC01C3019C
:102A6000B2010E9498384B015C0120EC31EE44E643
:102A70005EE40E94F03A0E9477380E941139603D6E
:102A800057E075078105910508F066C027E0A98920
:102A9000BA892A9FF0012B9FF00D1124E25EFD4FB1
:102AA000158227E0A989BA892A9FF0012B9FF00D92
:102AB0001124E25EFD4F7383628380911D02809337
:102AC00048028F5F863009F4A1C080931D02E09117
:102AD000DF02F091E002C801A981BD81868F978F46
:102AE000A0A3B1A3C092B502D092B602E092B70201
:102AF000F092B80229853A854B855C85C701B601FD
:102B00000E949837A50194010E94F03A6093B102A7
:102B10007093B2028093B3029093B4022091C202E8
:102B20003091C3024091C4025091C502B80189811D
:102B30009D810E948E38811114C9F090630620E0B7
:102B400030E0A901B80189819D810E94B03A181630
:102B50000CF05FC08F2D55CB603A3FE073078105C5
:102B60009105A0F5A7E049895A89A49FF001A59F86
:102B7000F00D1124E25EFD4FB1E0B583A7E0498975
:102B80005A89A49FF001A59FF00D1124E25EFD4F2C
:102B90002581022E04C096958795779567950A94AE
:102BA000D2F74D855E8502C0440F551F2A95E2F786
:102BB000518340836115710551E08507910508F443
:102BC00070CF4FEF5FEF5383428377CF6034EFE1F5
:102BD0007E078105910568F447E029893A89429F7B
:102BE000F001439FF00D1124E25EFD4F52E055834A
:102BF000C5CF27E0A989BA892A9FF0012B9FF00D44
:102C00001124E25EFD4F33E03583B8CF10921D02F0
:102C10005ECFF2FC9FCF1092E0021092DF02909103
:102C2000E30280912406891709F49BC881E0890F8B
:102C3000803109F480E02091E102921302C0809378
:102C4000E1028093E3028DC82F923F924F925F92F0
:102C50006F927F928F929F92AF92BF92CF92DF92AC
:102C6000EF92FF920F931F93CF93DF93CDB7DEB711
:102C7000A4970FB6F894DEBF0FBECDBF10914206E9
:102C8000112349F181E080935F0686E691E00E947E
:102C9000D707812F0E94B2070E94E50785EF91E0D8
:102CA0000197E1F51150123088F486ED92E00E9410
:102CB000D70784EC92E00E94D7070E94490980E17F
:102CC0000E9447028091410684FFFCCF8FB7F894A1
:102CD000109242068FBF10914106112309F49DC244
:102CE00014FF23C081E080936006A4960FB6F89489
:102CF000DEBF0FBECDBFDF91CF911F910F91FF902F
:102D0000EF90DF90CF90BF90AF909F908F907F908B
:102D10006F905F904F903F902F900895EFE9FFE004
:102D20003197F1F700C00000BBCF10FFCEC08CE0A0
:102D3000E6E4F6E0DE01599601900D928A95E1F7FE
:102D4000BE01675E7F4FCE010D960E9495028CE317
:102D50000E94AA0680915F06883009F430C108F00D
:102D60000BC1813009F434C108F424C1823009F464
:102D700032C1843009F429C18091A506F82FF17081
:102D80009F2E80FF3DC180916C06882309F438C1D5
:102D900082E991E00E94D707CE010D960E94990723
:102DA0008091A50681FF1DC086E891E00E94D707AB
:102DB000909124068091E302981708F470C1815F16
:102DC000891B0E94B2078CE20E94AA068091F10141
:102DD0009091F001981708F464C18058891B0E94F3
:102DE000B20781E891E00E94D70780915F068C7757
:102DF00009F459C16091C6027091C7028091C8025E
:102E00009091C9020E947D078CE20E94AA066091FF
:102E10006D0670916E0680916F069091700640E08D
:102E20000E94D3060E94F002E82E0E94D102F82EE2
:102E300006B100728091450608278E2D8F29802BC0
:102E400061F18CE791E00E94D707002319F080E53B
:102E50000E94AA06EE2081F0E0FE03C088E50E94F1
:102E6000AA068E2D8A7019F089E50E94AA06E2FE54
:102E700003C08AE50E94AA06FF2079F0F0FE03C095
:102E800082E50E94AA06F1FE03C088E40E94AA0619
:102E9000F2FE03C083E50E94AA0680916C06882397
:102EA00009F405C1815080936C0600916B060023E4
:102EB00009F416C1015000936B068EE30E94AA0626
:102EC0000E94E50781E00E944702812F887E09F475
:102ED00054C180915F06982F937009F03DC18872AC
:102EE000A9F080916106807C89F40E94D30482E07D
:102EF0008093630680915F06803241F480E217FD83
:102F00000CC08091610680688093610680915F06A5
:102F1000811103C091E09093610616FF07C085FD03
:102F200005C09091610690649093610613FF05C0FF
:102F3000807E19F480E180935F0615FF0DC186ED58
:102F400092E00E94D70782E892E00E94D7070E9491
:102F500049098091610687FDFAC090915F0690341F
:102F600009F0F2C083FF04C0837E82608093610613
:102F700080E480935F06EBC0803221F198F48031C9
:102F800009F0FACE8091610687FD1CC08AEB91E0C2
:102F90000E94D7078091610680FF2EC080E30E94C7
:102FA000AA06EACE8034D1F0803809F0E5CE89E96E
:102FB00091E002C084EC91E00E94D707DDCE80EC66
:102FC00091E0FACF86EB91E0F7CF81EB91E0F4CF7F
:102FD0008BEA91E0F1CF85EA91E0EECF8FE991E0C5
:102FE0000E94D7078091610683FF02C083E3D7CF99
:102FF00082FF04C085FFD2CF81E3D1CF82E3CFCF60
:1030000040900E0750900F076090100770901107C6
:1030100056EFA52E56E0B52E9E012F5F3F4F69015A
:10302000CE010D967C0100E0F501619171918191D5
:1030300091915F0120853185428553850E949937A2
:10304000F60161937193819391936F01023041F482
:10305000A30192010E94993769877A878B879C87A1
:10306000911012C0F6013497208131814281538141
:10307000F70160817181828193810E949837F70105
:1030800060837183828393830F5FF4E0EF0EF11C02
:10309000033051F691107CCE8BE891E07BCE8150CD
:1030A0008FCE81509BCE60E070E0CB01ABCE8091A3
:1030B0005F068C7799F08DE180936C0680916B06AA
:1030C000811103C081E080936B0686E791E00E9446
:1030D000D707CE0101960E949907E7CE89E0ECCF91
:1030E00080915F068C7771F183E180936B0681E7B5
:1030F00091E00E94D707809167060E94B2078CE298
:103100000E94AA06809168060E94B2078CE20E9483
:10311000AA06809169060E94B207F090B0002D9B2C
:10312000C3C100E48DE691E00E94D707F7FE03C01B
:1031300083E50E94AA06002309F4BFCE86E40E941C
:10314000AA06BBCE89E0D1CF903809F011CF80918B
:10315000610680628093610617FF0CC080915F0654
:10316000813029F48091610685608093610680E852
:1031700080935F0688EE0E94470211FF28C0812FCE
:10318000887611F580915F06803441F48091610664
:1031900085FD04C084FFEAC010925F0680915F063F
:1031A000882309F4E9C084FF0FC09091610690FF65
:1031B0000BC0803109F0E0C080916A06882309F4D1
:1031C000DBC0886080936A0682E00E94470212FF9B
:1031D00024C09091610680915F06807D09F4E5C06E
:1031E000809162068111E1C097FDE1C00E94D30485
:1031F0008091E3028093E1020E94F70480916306CC
:1032000081FF05C090916106916090936106897F6E
:103210008093630684E00E944702909143069923BD
:1032200009F44CC08FB7F894109243068FBF4091B9
:103230006706842F90FD84E691FD865F92FD8A509B
:1032400093FD8F5F94FD8150893C08F088EC8A30B3
:1032500008F48AE030916806232F95FD24E696FD58
:1032600022E397FD29E1481302C0231739F1809327
:1032700067062093680610926B067090E3026090D8
:103280002406172D89E9282E96E7392E26E9422EA5
:103290003EE7532E43E3842E1611A4C0C101D20190
:1032A00080933D0690933E06A0933F06B093400660
:1032B0000E94D3047092E1020E94F7041091440628
:1032C000112309F44BC08FB7F894109244068FBFB6
:1032D00090916906892F10FD84E611FD865F12FD2D
:1032E0008A5013FD8F5F14FD8150893C08F088ECF3
:1032F0008A3008F48AE09817A1F090915F068093D5
:1033000069069111C5C04091DD065091DE066091BD
:10331000DF067091E0068091DB060E94E60A1092BB
:103320006B0680915F0615FF09C0803139F49091DA
:103330006A069111B3C092E090936A06107C71F016
:10334000882311F0887351F01091DA0616FFAAC095
:103350001F7B812F0E9478091093DA0680915F0607
:103360008C7F09F4C2CC0E94930EBFCC82FF16CF93
:1033700088608093610612CF109263060E94110448
:10338000892B71F08091610686FD0AC0109261065A
:1033900088E080935F060E94930E0E94890614CFF6
:1033A0001092610610925F060FCF97FF0AC010922D
:1033B00063060E94CA090E942D0E0E94C4090E9441
:1033C0007C038091610685FF08C08F7781608093C0
:1033D000610680E480935F061DCF10926106109213
:1033E0005F0618CFA12EB12C189DC00111248C505E
:1033F0009D4F0E949E03962EC72ED82E092F910115
:10340000A2010E94B03A8A9C70018B9CF00C11249E
:1034100097012C503D4F790118168CF59101A201AE
:10342000B101C2010E94F03AF701668B778B808F61
:10343000918F8A9CC0018B9C900D11249C012C5073
:103440003D4F7901F90122A033A044A055A0A2016B
:10345000910166897789808D918D0E94B03A181606
:103460002CF4F701268A378A408E518E1F5F103167
:1034700009F410E0292C3C2C4D2C502E0DCF292D79
:103480003C2D4D2D502F692D7C2D8D2D902FCACF89
:103490008091630688608093630641CF90FF4ECF92
:1034A00094604ACF106455CFF7FC3CCE06CDCF9246
:1034B000DF92EF92FF921F93CF93DF930E94241627
:1034C00080916106882309F46EC00E941104009760
:1034D00009F03FC0C091DB068091DA06C82BC0908E
:1034E000DD06D090DE06E090DF06F090E0068091E9
:1034F000B60681FF03C080E20E942F02DC2FD0734A
:1035000011E0C07C80916106882309F44CC0909141
:103510006006911148C080FF19C090915F06292F65
:10352000207C09F48DC082FD23C010926A0640E021
:1035300050E0BA0180E00E94E60A80E00E9478092B
:10354000809161068D7F8460809361060E942416BD
:10355000D9CFFC01218920732D9908C0C0E0C22B6E
:10356000FC01C6A4D7A4E0A8F1A8C1CFC0E4F7CF5E
:10357000903821F586ED92E00E94D7078FE392E024
:103580000E94D7070E94490940E050E0BA0180E05C
:103590000E94E60A80E00E9478090E94F90D80915D
:1035A0006006882341F0DF91CF911F91FF90EF904B
:1035B000DF90CF9008950E942416F1CF903419F433
:1035C0008F7D809361068091610683FFBFCF9091CC
:1035D000DB06992359F081FD09C08091B60681FF71
:1035E00022C0809163068860809363068091DA062A
:1035F000882371F08091610681FD0AC08C2F0E94A2
:10360000780941E060E070E080E89FE30E94F21DED
:103610008091610681FD9ACF80618093610682E08E
:103620000E94510293CFB701A6018D2F0E94E60A96
:1036300041E060E070E080E890E40E94F21DD6CFA7
:1036400080916A068823C9F181FF0DC08091DB0655
:10365000882351F140E050E0BA0180E00E94E60A80
:1036600010936A0673CF8C7009F470CF8091DB06DB
:10367000882399F086ED92E00E94D70788E492E0D3
:103680000E94D7070E9449098091B60681FF0FC0AA
:103690008091630688608093630680916A0683FF49
:1036A00003C082E00E94510210926A064FCFB70118
:1036B000A6018D2F0E94E60AF0CF8091630683FF5A
:1036C00045CFB701A6018D2F0E94E60A80916306BF
:1036D000877F809363063ACF2F923F924F925F92FB
:1036E0006F927F928F929F92AF92BF92CF92DF9212
:1036F000EF92FF920F931F93CF93DF93CDB7DEB777
:10370000A7970FB6F894DEBF0FBECDBF90916006AD
:1037100091117CC189A3FE013D9688E0DF011D92D5
:103720008A95E9F786E090E09E8B8D8B2DEC3CEC42
:103730004CE45DEB6091950670919606809197063A
:10374000909198060E94F03A6B017C0120E030E0F5
:1037500048EC51E40E948E3887FFADC020E030E095
:1037600040E250E4C701B6010E94B03A18160CF0CE
:10377000A9C0209175063091760640917706509148
:103780007806C701B6010E94F03A0E940A396AA37E
:103790007BA38CA39DA3E1E7F6E0FB8FEA8F7F017B
:1037A0009E01295E3F4F390110E000E0812C912CF1
:1037B000540159A1452F50E05D8F4C8F802F94E02C
:1037C000002321F090E1013009F498E0D3019D93AA
:1037D0003D01EC8DFD8D02C0F595E7958A95E2F7E8
:1037E000E0FF17C020E030E040EC5FEBD70194969B
:1037F0006D917D918D919C9197970E94F03A1B015C
:103800006C01A50194010E948E3887FD02C0410120
:1038100056010F5F1F4FB4E0EB0EF11C0330110592
:1038200069F64090BC065090BD066090BE06709050
:10383000BF06E4E0E8A311E066E476E0CE0101967D
:103840000E949502109266068091B706282E312CB0
:10385000AE014F5F5F4F26E436E03F8F2E8F3FA3D0
:103860002EA370E060E0F12CD12CC12CD501C40155
:10387000B0582C8D3D8D0C2C02C0359527950A949F
:10388000E2F720FF39C06F5FEEA1FFA11082118225
:103890001282138291010C2C02C0359527950A944F
:1038A000E2F7FA0120FF15C01123A9F0808391836C
:1038B000A283B38314C0C12CD12C98ECE92E91E4DF
:1038C000F92E57CFC12CD12C80E2E82E80E4F82EBF
:1038D00050CF112359F380829182A282B38227E1D3
:1038E00030E02C0F3D1F2C0D3D1DF9012081F22AE7
:1038F000F1E0CF1201C070E12FEFC21AD20A4C5F83
:103900005F4FEEA1FFA13496FFA3EEA3F3E0CF1625
:10391000D10409F0AECF7093660670E090E080E0CD
:103920000E9440390E948F3BF0926506A3019201EC
:103930000E94F03A6D877E878F87988BBE01635F08
:103940007F4FCE0101960E940C0B24E0209363066A
:103950000E94930E0E94890600E0812C912C540154
:10396000112309F46EC00E94F002FE01779630E048
:1039700020E0482F50E09191692F6F2171F0BA013A
:10398000022E02C0759567950A94E2F760FF05C0A4
:103990009095F922213009F402602F5F3F4F2330C8
:1039A000310549F7F092650690916606992309F46E
:1039B00046C083FF44C010926606046000FFE2C068
:1039C000802F8670863009F4E7C080914A06909176
:1039D0004B06A401481B590BCA0157FF03C0919520
:1039E00081959109092E000CAA0BBB0B2AA13BA1C2
:1039F0004CA15DA1281739074A075B0714F58AE037
:103A00000E9441020E946F0E0E94571AA7960FB69D
:103A1000F894DEBF0FBECDBFDF91CF911F910F9104
:103A2000FF90EF90DF90CF90BF90AF909F908F90DE
:103A30007F906F905F904F903F902F90089501116D
:103A4000BDCF0E94930E80914106847309F4A6C0F5
:103A5000F0904106F4FE03C086E00E944102F5FEAC
:103A600003C087E00E9441021111B8C00E94F00219
:103A700039A1832319F088E00E9441028091420617
:103A80008111C0CF84E00E9447020E942D0E8091D8
:103A9000C0069091C106019708F089C0E1E01E2799
:103AA000C090C206D090C306E090C406F090C50650
:103AB000112309F483C020E030E040EA50E4C7015C
:103AC000B6010E94F03A4B015C014090B80650905C
:103AD000B9066090BA067090BB06F8A1F150F8A341
:103AE000F111AACE2090B706312C2601370177FAC2
:103AF000709477F8709410E000E08C8D9D8D002E0E
:103B000002C0959587950A94E2F780FF26C0AA8D9A
:103B1000BB8D8D909D90AD90BC901397C101002EF0
:103B200002C0959587950A94E2F780FF52C094965B
:103B30002D913D914D915C919797C701B6010E94DF
:103B40009937A50194010E94F03A0E94BD3AEE8D8A
:103B5000FF8D60837183828393830F5F1F4F2E8D50
:103B60003F8D2C5F3F4F3F8F2E8F4A8D5B8D4C5F7B
:103B70005F4F5B8F4A8F0330110509F0BECF109263
:103B8000630644CF016080904A0690904B06A09057
:103B90004C06B0904D0655CF00E053CF8F2D8C7161
:103BA00009F0DECE809166068111DACE6ECFAFE9E4
:103BB000BFE01197F1F700C000006DCF4090BC0648
:103BC0005090BD066090BE067090BF06460157013A
:103BD00084CFA5019401C301B201B5CFF2FE4ECF4F
:103BE00089E04ACF1F93CF93DF93142F20E030E07A
:103BF00040EA51E40E94F03A0E9477380E9411395D
:103C0000EB012097C9F080916006811115C0111158
:103C10000DC00E94571A2FEF80E792E0215080409C
:103C20009040E1F700C000002197EBCF0E942416DE
:103C30008091610681FFEFCFDF91CF911F910895B1
:103C40000E94A2060E94571A80916006811108C046
:103C50000E941104892BB1F780915F06883091F39F
:103C60000895CF93DF9391E5899FE0011124DD5FF3
:103C700040E550E0BE018CE497E00E949104892B5E
:103C800079F410924C070E94201E40E550E06CE44D
:103C900077E0CE010E94410480E0DF91CF9108954A
:103CA00081E0FBCF0E94201E10926C0608950F93B6
:103CB0001F93CF93C82F8B010E94201E2DE0C29F1F
:103CC000C00111244CE050E0B8019E5FCF911F91DC
:103CD0000F910C9441041F93CF93DF93182FEB01A6
:103CE0008DE0189FB00111247E5F4CE050E0CE01C2
:103CF0000E949104892B71F48CE0FE0111928A9547
:103D0000E9F7BE01812F0E94571E80E0DF91CF911D
:103D10001F91089581E0FACFEF92FF920F931F93C6
:103D2000CF93DF93CDB7DEB72C970FB6F894DEBFF5
:103D30000FBECDBF182F80FF0BC081E6E9ECF1E08C
:103D4000A1E7B6E005900D928A95E1F70E947C0408
:103D500011FF10C0CE0101967C018CE0F701119299
:103D60008A95E9F700E0B701802F0E94571E0F5F88
:103D70000830C9F712FF14C060E080E093E00E94B1
:103D8000210460E081E093E00E94210460E081E58D
:103D900093E00E94210460E082E593E00E94210408
:103DA00013FF0AC060E08EEA93E00E94210460E005
:103DB0008FEA93E00E9421042C960FB6F894DEBFA0
:103DC0000FBECDBFDF91CF911F910F91FF90EF906C
:103DD0000895CF92DF92EF92FF92CF9390915F067A
:103DE000923079F06A017B01C82F0E94201EB70132
:103DF000A6018C2FCF91FF90EF90DF90CF900C9485
:103E0000E60ACF91FF90EF90DF90CF9008952F9228
:103E10003F924F925F926F927F928F929F92AF925A
:103E2000BF92CF92DF92EF92FF920F931F93CF93A7
:103E3000DF93CDB7DEB76C970FB6F894DEBF0FBE39
:103E4000CDBF7C018B018091B60685FF26C0D09046
:103E50005F0630E2432ED41429F1C7010E945A02B2
:103E60008823D9F081E08093620628E0522ED51095
:103E70000DC088E00E9451020E94571A809160068E
:103E800081110BC080915F068111F6CF0E946F0EE9
:103E900082E00E9441020E94571A80915F068230A0
:103EA00009F4E0C0F8018085918590FDB2C081FFE2
:103EB00009C08CE0E6E4F6E0B0E0A0E001900D92ED
:103EC0008A95E1F788EEA82E82E0B82E670191E787
:103ED000892E96E0992E25E236E03A8F298F45EE1D
:103EE00052E05C8F4B8F17015CE0250E311C1F8A5E
:103EF000F50111921192119211925F01F6016191F7
:103F00007191819191916F01F401219131914191D0
:103F100051914F010E94F03A0E94BD3AE98DFA8D0D
:103F20002191319141915191FA8FE98F2B013C01FF
:103F3000421A530A640A750AB301A201141615063F
:103F4000160617060CF474C081E090E0A0E0B0E023
:103F5000452B462B472B19F480E090E0DC019C01B7
:103F6000AD0166277727CB01621B730B840B950B82
:103F7000EB8DFC8D2191FC8FEB8F222339F16115A4
:103F800071058105910511F1022E000C330B440BD4
:103F9000550B6217730784079507C1F03501F4E0EC
:103FA0006F1A71080E9442399B01AC01F401EF5A6B
:103FB000FF4F60817181828193810E94F03AF30109
:103FC0006083718382839383F1E0FF8BC214D304F7
:103FD00009F08ECF4F884420E1F08CE0E8EEF2E06B
:103FE000DE01119601900D928A95E1F78AE0F801C1
:103FF000DE011D9601900D928A95E1F781E091E036
:104000009E8B8D8BBE01635F7F4FCE0101960E9418
:10401000071F0E94571A80916006811123C090915A
:10402000E3028091E202981308C00E94A206F1CF39
:1040300061E070E080E090E09BCFB801C7010E9492
:104040000C0B81110FC08091B60681FF0BC0F801E7
:10405000808584FF07C0448155816681778180E136
:104060000E94E91E6C960FB6F894DEBF0FBECDBF5E
:10407000DF91CF911F910F91FF90EF90DF90CF9044
:10408000BF90AF909F908F907F906F905F904F9078
:104090003F902F9008952F923F924F925F926F9290
:1040A0007F928F929F92AF92BF92CF92DF92EF92C8
:1040B000FF920F931F93CF93DF93CDB7DEB7CD540D
:1040C000D1090FB6F894DEBF0FBECDBFE2E1F7E035
:1040D0008AE3DF011D928A95E9F78BE0E2EDF6E0D5
:1040E000A3E1B7E001900D928A95E1F780914C072A
:1040F0008432A1F01B8E1CA2312C212C1FA61EA6DF
:1041000010E01C8E18A2EE24E394F12CAAE0AA2E53
:10411000B12CB1E68B2EB3E09B2E4EC181E0809393
:1041200013071092140783E08B8FB1E0BCA3E4CF98
:104130009FEB9D0D9A3110F00C94E92D8F5F8B8FC2
:10414000BE01695E7F4FCE014B960E94820188239B
:1041500011F40C94EC2D4F88588C698C7A8CC30127
:10416000B2010E94D33B0E941139062F70E090E00B
:1041700080E00E9442399B01AC01C301B2010E9460
:10418000983720E030E048EC52E40E94F03A0E9478
:104190005D3B0E941139CB01E7E4DE1629F1FDE415
:1041A000DF1609F465C1EAEBED0DE53108F02CC02E
:1041B0000E2E000CFF0BE152FF4D0C943B3C812274
:1041C00004210421AE22B922C422CF220421D32209
:1041D0000421E1220421EB22F522FF220421042103
:1041E00004210F231C232923083209F4DDC030F5F4
:1041F000043160F4013108F098C0043009F474C04F
:10420000B0F00A3009F468C084E196C00C3109F4BA
:1042100063C040F40631C0F725E1201B2093150749
:1042200026E087C00E3109F457C0063269F748A16D
:1042300041110C94EF2DA2E0A8A328C00D3309F47E
:10424000AEC0E0F4053309F44FC088F40B3211F02E
:104250000133D1F6B8A1B1110C94EF2D013309F05F
:1042600095C010921807E3E0E8A328E04FC00C3394
:1042700058F606530093190729E05BC00C3508F582
:104280000A3508F073C0003509F0BECF009313075C
:1042900021E0063209F04DC08431910551F08E3194
:1042A000910539F08832910521F08233910509F0AA
:1042B000ABCFB5010E94053C66576093130721E020
:1042C00025C00C3549F00F3508F09ECF2EE5201B98
:1042D0002093140725E02DC0009731F428A1211167
:1042E0000C94EF2D31E038A300931207202F2D7F7F
:1042F0002C3119F020E00C35E1F4009719F00A9701
:1043000009F082CF600F6093120720E0C70102C05E
:10431000880F991F2A95E2F72EA53FA52823392358
:10432000232B09F443C085E107C00151009317070F
:1043300022E0892B59F387E1C35BDF4F0FB6F89476
:10434000DEBF0FBECDBFDF91CF911F910F91FF90C8
:10435000EF90DF90CF90BF90AF909F908F907F9025
:104360006F905F904F903F902F900895892B29F484
:104370000A550093160723E0C9CF6A30710509F08A
:1043800043CF0A3509F440CF24E0C0CF0A9709F0A3
:104390003BCFF1E0F093180723E028A366CF892BE9
:1043A00009F032CF2AE0B2CF27E0C3CFAEA5BFA538
:1043B000A82BB92BBFA7AEA78B8DE82FF0E0E45B4D
:1043C000F84FD080D110B4CEBC8DBB2329F0E8A12A
:1043D000E11102C0F2E0F8A325FE0FC080912F0783
:1043E00090913007A0913107B091320781389649FA
:1043F000A849B10514F00C94FB2D3CA1332309F41A
:1044000035C120FE45C1809115078130B1F423E309
:1044100033E34BEC51E460911E0770911F078091CC
:104420002007909121070E94F03A60931E07709335
:104430001F07809320079093210730FC10C08091C4
:10444000DD069091DE06A091DF06B091E006809334
:104450003B0790933C07A0933D07B0933E078091A4
:104460001207843009F02FC126FC2BC18CE164CFE8
:10447000892B09F060CF063050F4033098F00430F7
:10448000D9F080E10530C9F410921C0718C008303B
:1044900008F4BACE0A3048F10E3109F0B5CE0093D7
:1044A0001A0704C0002321F00130C9F78BE008C0CF
:1044B000B3E0B0931A07FACF80E280931C078CE038
:1044C000F70102C0EE0FFF1F8A95E2F7CF012EA57C
:1044D0003FA52E233923232B09F025CF2EA53FA559
:1044E0002E2B392B3FA72EA767CF093039F08091AB
:1044F0001B07806480931B078DE0E2CF10921B079F
:10450000FBCF40921E0750921F07609220077092C7
:10451000210780E06701082E02C0CC0CDD1C0A9444
:10452000E2F7960122213321232B11F00C94F52D73
:10453000D40102C0B595A7958A95E2F7A0FF0BC0FC
:1045400020E030E0A901C301B2010E948E3887FF4C
:1045500002C00C94F82D2C283D282ECF4092220723
:10456000509223076092240770922507116081E022
:10457000D1CF409226075092270760922807709269
:104580002907126082E0C6CF40922A0750922B077B
:1045900060922C0770922D07146083E0BBCF0093CC
:1045A0002E0784E0B7CFC301B2010E940A3960939D
:1045B0002F0770933007809331079093320785E07F
:1045C000A9CF40923307509234076092350770921A
:1045D000360786E09FCF40923707509238076092A7
:1045E000390770923A0787E095CF40923B07509287
:1045F0003C0760923D0770923E0788E08BCF20E039
:1046000030E04FE753E4C301B2010E94B03A1816FC
:1046100014F40C94F22D00933F0789E07BCF409275
:1046200040075092410760924207709243073C8DC9
:1046300031603C8F8AE06ECF40924407509245072C
:1046400060924607709247074C8D42604C8F8BE01A
:1046500061CF409248075092490760924A07709292
:104660004B078C8D84608C8F8CE054CF8091140725
:10467000813081F448A1423009F0DFCE80911307E8
:10468000803509F4DACE882309F4D7CE20FCD5CEC4
:1046900086E152CE8091D3068111CFCE20FCB3CEDD
:1046A0008091E1069091E206A091E306B091E406C4
:1046B00080931E0790931F07A0932007B0932107B4
:1046C000BCCEE89426F880911707882359F08130F2
:1046D00009F4BBC023961FAE2397A2E0ACAFB1E0B4
:1046E000BAAF07C082E023968FAF239791E09CAFCB
:1046F0001AAE80911507813071F5E2E1CE2EE7E028
:10470000DE2EF12CE12C2C8DA22EB12CC5010E2C0D
:1047100002C0959587950A94E2F780FF12C023E3C3
:1047200033E34BEC51E4D6019E966D917D918D91D2
:104730009C91D1970E94F03AF60166A777A780ABCB
:1047400091ABFFEFEF1AFF0A24E0C20ED11C33E059
:10475000E316F104D9F648A1433049F480911807D3
:10476000813029F48C8D843011F00C94FE2D8CE076
:10477000E6EFF6E0DE01119601900D928A95E1F7E1
:10478000AEA5BFA5B1FD69C0009112070A3009F4BA
:1047900078C00C3509F419C198A1933009F43FC0D1
:1047A000AC8DAA23E1F1B0911607B8A780910E074E
:1047B00090910F07A0911007B09111078AA79BA7AE
:1047C000ACA7BDA792EDA92E96E0B92E22E1C22E8C
:1047D00027E0D22EF12CE12C9C8D892E912CC40146
:1047E0000E2C02C0959587950A94E2F780FD5DC175
:1047F000F501808D918DA28DB38DF60186A797A7C7
:10480000A0ABB1ABFFEFEF1AFF0A24E0A20EB11C80
:1048100034E0C30ED11C43E0E416F10401F70E317D
:1048200009F494C1053309F4B8C162E277E086E087
:104830000C3109F02DC10E946B1E882301F18C8D73
:10484000811188C11AA618A2A9C0E1E02396EFAF92
:1048500023971CAEF2E0FAAF4CCF80911907873056
:1048600010F08DE169CD9091D806891709F48CCFAD
:10487000BE016F5F7F4F0E946B1E811185CF87E065
:104880005BCDBC8DB11102C08AE156CDC1018075EE
:104890009927892B09F4EACD609133077091340789
:1048A00080913507909136070E94D33B0E941139C1
:1048B0006730B8F680912E07843129F0823009F0F4
:1048C000A3CC27FCA1CC662309F474C061506AA76D
:1048D00062E277E08AA50E946B1E882381F2009134
:1048E0002E0740900E0750900F07609010077090B1
:1048F000110772E1C72E77E0D72EF12CE12C3C8D09
:10490000232F30E039A728A788A599A50E2C02C02F
:10491000959587950A94E2F780FF33C0D6019E965D
:104920008D909D90AD90BC90D197043109F046C018
:10493000F701EE0FFF1FEE0FFF1FEE52F94F20A9F8
:1049400031A942A953A9608D718D828D938D0E94EA
:104950009837A50194010E949837F601608B718BFE
:10496000828B938BF2E0EF120CC0A30192010E94A4
:10497000983760932A0770932B0780932C079093A6
:104980002D07BFEFEB1AFB0AE4E0CE0ED11CF3E0DB
:10499000EF16F10409F0B8CF2FEA22228091130715
:1049A00088A7803509F000C19C8D992309F406C1C0
:1049B0008FE1C2CCE0911907EAA78ACF50968D9279
:1049C0009D92AD92BC925397DCCF3C8D332309F47A
:1049D0005BCF40900E0750900F07609010077090CB
:1049E000110742ED842E46E0942ECE0101967C0103
:1049F00052E1A52E57E0B52ED12CC12CA32FB0E04B
:104A0000B9A7A8A788A599A50C2C02C0959587954C
:104A10000A94E2F780FF3EC0F70120813181428194
:104A20005381D40158966D917D918D919C915B97A6
:104A30000E949837F50126A537A540A951A90E94E3
:104A40009837D5019E966D937D938D939C93D197C6
:104A5000B2E0CB120CC0A30192010E949837609380
:104A600048077093490780934A0790934B07FFEFDD
:104A7000CF1ADF0A24E0820E911C34E0E30EF11C11
:104A800044E0A40EB11C83E0C816D10409F0BACFEB
:104A90001AA684CFF40180A991A9A2A9B3A9F5010E
:104AA00086A797A7A0ABB1ABE2CF053309F4AACE96
:104AB000D6019E964D905D906D907C90D197B8A553
:104AC000B11133C0F701EE0FFF1FEE0FFF1F21E002
:104AD00030E02C0F3D1FE20FF31FD501D0962D9132
:104AE0003D914D915C91D3976081718182819381D9
:104AF0000E949937A30192010E949937F60166A797
:104B000077A780AB91ABF2E0EF127CCE2AA53BA554
:104B10004CA55DA50E94993760934807709349079B
:104B200080934A0790934B076DCEA3019201D50164
:104B300058966D917D918D919C915B970E949937CC
:104B4000F60166A777A780AB91AB5CCE62E277E017
:104B500087E071CEA2EDB6E0E2E1F7E090E080E020
:104B60004C8D242F30E0A901082E02C055954795A1
:104B70000A94E2F740FD0AC058964D915D916D91FF
:104B80007C915B97408B518B628B738B0196149653
:104B900034968330910539F77BCF809113078230AB
:104BA00008F476CF8EE1C8CBA8A1A23039F4B8A51D
:104BB000B11175C0EC8DEE2309F48FC02CA12170CA
:104BC000ECA1C101E0FFDAC28E7DF8A1F111937E64
:104BD000892B11F00C94072E8E01035F1F4F8AE082
:104BE000D8011D928A95E9F7222309F4CAC28EA53D
:104BF0009FA5867B892B11F00C940A2E80911207B9
:104C0000853319F081110C940A2E8091DD06909164
:104C1000DE06A091DF06B091E006898B9A8BAB8B04
:104C2000BC8B8091DB069091DA06892B40911E07A0
:104C300050911F0760912007709121074D875E8773
:104C40006F87788B846090E09E8B8D8B8091B60609
:104C500085FF06C080E497E00E945A028111DDC7FB
:104C6000B80180E497E00E94071F80915F068111E0
:104C70000BC00E941104892B39F080E280935F06FB
:104C80000E94930E0E9489068CE0E0E4F7E0AAEE11
:104C9000B6E001900D928A95E1F780E04DCB20E0DF
:104CA00030E0A90160911E0770911F0780912007D5
:104CB000909121070E948E38882309F4E9CCF8A549
:104CC000FC38B9F060F4F23059F1F33061F1F130B1
:104CD00009F074CF3C8D311171CF18A26FCF28A588
:104CE0002E3839F018F02F3809F068CF9CA1906168
:104CF0009CA388A58E58823018F4ACA1A860ACA300
:104D0000BC8DBB2309F4C0CD4CE050E060E477E0FB
:104D10008AEE96E00E945B3C892B09F04FCF6DC074
:104D20004CA144604CA38C8D882309F4ADCDBAAD61
:104D3000AB2FB0E0BBABAAABFCADEF2FF0E0FFAB0D
:104D4000EEAB81E090E07C010AAC02C0EE0CFF1CEF
:104D50000A94E2F70CAC02C0880F991F0A94E2F79C
:104D6000E82AF92A2C8D822F90E08E219F21892B11
:104D700009F447C7FD01EE0FFF1FEE0FFF1FEE5EA8
:104D8000F84FAA0FBB1FAA0FBB1FA651B94F2D91F9
:104D90003D914D915C9166A577A580A991A90E944E
:104DA00098372B013C01EEA9FFA9EE0FFF1FEE0F74
:104DB000FF1FEE5EF84FAEA9BFA9AA0FBB1FAA0F37
:104DC000BB1FA651B94F2D913D914D915C9166A5A8
:104DD00077A580A991A90E9498374B015C0127FE15
:104DE000FFC0E89427F84CE050E060E477E08AEEFA
:104DF00096E00E945B3C892B11F481E29DCA609190
:104E00003707709138078091390790913A072091C0
:104E10001507213071F423E333E34BEC51E40E9496
:104E2000F03A60933707709338078093390790936F
:104E30003A078091370790913807A0913907B091D0
:104E40003A0722968CAF9DAFAEAFBFAF2297A301BA
:104E50009201C301B2010E94F03A2A966CAF7DAF75
:104E60008EAF9FAF2A97A5019401C501B4010E949E
:104E7000F03A2E966CAF7DAF8EAF9FAF2E9720E0AD
:104E800030E040E850E422966CAD7DAD8EAD9FAD34
:104E900022970E94F03A22962CAD3DAD4EAD5FAD0B
:104EA00022970E94F03A2A962CAD3DAD4EAD5FADF3
:104EB0002A970E9498372E962CAD3DAD4EAD5FAD32
:104EC0002E970E9498376B017C0120E030E0A90109
:104ED0000E948E3887FD98C6C701B6010E948F3B9D
:104EE0006B017C012E962CAD3DAD4EAD5FAD2E9786
:104EF0002A966CAD7DAD8EAD9FAD2A970E949937F5
:104F00000E948F3B9B01AC01C701B60190580E94E3
:104F100098386B017C0198A5933021F4F7FAF0944E
:104F2000F7F8F09420E030E0A90122966CAD7DAD59
:104F30008EAD9FAD22970E948E3887FF13C0F7FA7F
:104F4000F094F7F8F09422968CAD9DADAEADBFAD68
:104F50002297B0588093370790933807A09339076A
:104F6000B0933A070AA91BA9000F111F000F111FC8
:104F70000E5D184FA7019601C501B4010E94F03AD9
:104F80009B01AC01C301B2010E94983720E030E0E0
:104F900040E05FE30E94F03AD8016D937D938D93DA
:104FA0009C9313970EA91FA9000F111F000F111F2B
:104FB0000E5D184FA7019601C301B2010E94F03A9D
:104FC000A50194010E94993720E030E040E05FE3C2
:104FD0000E94F03AF8016083718382839383EECD5F
:104FE000C12ED12CE122FD2083E2EF2809F4A4C9CF
:104FF000F1EF2F2280911507813041F502E117E092
:10500000F12CE12CC6010E2C02C0959587950A94CF
:10501000E2F780FF12C023E333E34BEC51E4D80105
:1050200050966D917D918D919C9153970E94F03A8D
:10503000F801608B718B828B938BFFEFEF1AFF0A65
:105040000C5F1F4F23E0E216F104E1F6EAA9FBA989
:10505000EE0FFF1FEE0FFF1FEE5DF84FC080D180F7
:10506000E280F380A7019601C301B2010E94983744
:105070002B013C01EEA9FFA9EE0FFF1FEE0FFF1F52
:10508000EE5DF84F80819181A281B3818AAB9BABA9
:10509000ACABBDAB9C01AD01C501B4010E9498371A
:1050A0004B015C01A3019201C301B2010E94F03ADD
:1050B0002B013C01A5019401C501B4010E94F03A05
:1050C0009B01AC01C301B2010E9499370E948F3B42
:1050D0004B015C01A7019601C701B6010E94F03A9D
:1050E0006B017C012AA93BA94CA95DA9CA01B901A0
:1050F0000E94F03A9B01AC01C701B6010E949937AA
:105100000E948F3B6B017C01C0923707D092380719
:10511000E0923907F0923A07AC019B01C501B40156
:105120000E9498374B015C01E894B7F82AE037ED0C
:1051300043EA5BE3C501B4010E94B03A18160CF0D3
:105140003DCD20E030E040E05FE3C501B4010E94C6
:10515000B03A18160CF451CE2FE632E143E85AE388
:10516000C701B6010E94F03A9B01AC01C501B40130
:105170000E94B03A18160CF021CD3FCE8E7D9C7F58
:1051800024CD8091B606F090DB0681FF12C088A581
:105190008150833018F0BCA1B064BCA3EC8DEE2329
:1051A00009F449C1F8A1F23009F045C12CA12068E9
:1051B0002CA380912F0790913007A0913107B091D7
:1051C00032078093E6069093E706A093E806B09333
:1051D000E906809114078093D306882321F088E0A4
:1051E00090E09E8B8D8B80911E0790911F07A09160
:1051F0002007B09121078093E1069093E206A093E7
:10520000E306B093E4068D879E87AF87B88B8090C6
:105210003B0790903C07A0903D07B0903E07A5014A
:1052200094016091DD067091DE068091DF06909119
:10523000E0060E948E389CA19074E92E811103C073
:10524000ACA1A5FF1FC0FF2069F0BCA1B7FD0AC03B
:1052500040E050E0BA01E11002C0B501A4018F2D79
:105260000E94E91E80913B0790913C07A0913D0769
:10527000B0913E078093DD069093DE06A093DF0693
:10528000B093E006E1100CC08091DD069091DE063F
:10529000A091DF06B091E006898B9A8BAB8BBC8B1B
:1052A00080913F078093E50680911C079091DB0673
:1052B000981751F049895A896B897C890E94E91EA7
:1052C00080911C078093DB062091DB068D899E89E7
:1052D000822B9E8B8D8BF0901B078091DA068F15A9
:1052E00069F080915F06823029F00E94201E8F2D88
:1052F0000E94780980911B078093DA062091DA06D4
:105300008D899E89822B9E8B8D8B80911207843094
:1053100099F480915F06823079F0C0903307D09085
:105320003407E0903507F09036070E94201E40E0D9
:10533000C701B6010E94F21D809117078093D6061F
:10534000809115078093D406E8A1E33071F5809130
:1053500018078093D706811108C010924807109251
:10536000490710924A0710924B07C0904807D09007
:105370004907E0904A07F0904B07A701960160911A
:105380000E0770910F0780911007909111070E94EE
:105390008E38882351F0C0920E07D0920F07E0920A
:1053A0001007F09211070E94521E809119079091E8
:1053B000D806981769F08093D8068CE0FE013196E4
:1053C000A6EFB6E001900D928A95E1F70E94521E79
:1053D000809116078093D50680911207863209F4D2
:1053E00080C008F03FC08C3109F45FC08E3109F4F1
:1053F0005CC08A3009F443C0809113078093D206C1
:10540000803509F451C3B8A1B23009F04DC38130E1
:1054100009F07BC0BE01635F7F4F80E497E00E948C
:10542000071F8CE0E0E4F7E0AAEEB6E001900D92F1
:105430008A95E1F739C330E1F312BBCE9CA1907499
:105440008091D2068150833038F4992309F4B1CE8B
:105450004CA140624CA3ADCE9111ABCE8CA1806229
:105460008CA3A7CE8C3509F442C0863609F445C01A
:10547000883209F0C1CF6AEE76E087E035C062E29B
:1054800077E08AA50E94571E8091D806FAA5F813E6
:10549000B3CF8CE0E2E2F7E0A6EFB6E001900D9228
:1054A0008A95E1F70E94521EA7CF8D899E8981605F
:1054B0009E8B8D8B28A1222329F0B80180E497E0F0
:1054C0000E94071FB80182E297E00E94071F8CE04C
:1054D000E2E2F7E0AAEEB6E001900D928A95E1F7DC
:1054E0008BCF6AEE76E086E00E94571E85CF8CE077
:1054F000E0E4F7E0A2E0B7E0D1CFE2E0F7E08CE053
:10550000DF011D928A95E9F7CDCF811107C08D8902
:105510009E8981609E8B8D8BB8017FCF82508230B7
:1055200008F099C28091370790913807A091390708
:10553000B0913A0788A399A3AAA3BBA3AAAD94E00C
:10554000A99F70011124F701E651F94FF9A7E8A7C7
:1055500097012E5D384F3BA72AA7D9014D905D904A
:105560006D907C902081318142815381C301B201D1
:105570000E9499376EA77FA788AB99ABECADB4E0DA
:10558000EB9F8001112498012651394F3BAF2AAF80
:10559000C8018E5D984F9DAF8CAFDC018D909D90C2
:1055A000AD90BC90F9012081318142815381C501C8
:1055B000B4010E9499376AAB7BAB8CAB9DAB77FA99
:1055C000709477F87094D501C401B0588C8F9D8F7A
:1055D000AE8FBF8FF701E05CF84F2EA53FA548A91D
:1055E00059A960817181828193810E9498376B01F2
:1055F0007C01F801E05CF84F2AA93BA94CA95DA900
:1056000060817181828193810E9498374B015C0196
:10561000A7019601C301B2010E94F03A6EAB7FABC5
:1056200088AF99AFA50194016C8D7D8D8E8D9F8D76
:105630000E94F03A9B01AC016EA97FA988AD99AD9B
:105640000E9499376EAB7FAB88AF99AFA5019401EB
:10565000C301B2010E94F03A4B015C01A70196011F
:105660006C8D7D8D8E8D9F8D0E94F03A9B01AC01DB
:10567000C501B4010E9498372EA93FA948AD59AD84
:105680000E9418386B017C019CA192FF6AC12DEB2E
:1056900037E346E055EBC701B6010E94B03A87FDFB
:1056A0000AC02BED3FE049EC50E4C701B6010E946F
:1056B00098376B017C018090AA069090AB06A09071
:1056C000AC06B090AD0628A139A14AA15BA1CA01E0
:1056D000B9010E949937A50194010E949837A5014C
:1056E00094010E94F03A0E948F3B4B015C0120E044
:1056F00030E040E05FE3C701B6010E94F03A28A124
:1057000039A14AA15BA10E94F03A9F77A5019401BB
:105710000E9498380E947D390E9411397FAB6EAB90
:10572000DB01AB2B09F476CE0D891E8990E080E079
:105730000E9440394B015C0103FF0FC0AC019B018B
:105740006D857E858F8598890E94F03A6D877E876A
:105750008F87988B077F1E8B0D8BA5019401C70146
:10576000B6010E9498386CA37DA38EA39FA32396B5
:10577000EFAD2397B4E0EB9FC00111248C010651DB
:10578000194F805C984FD8012D913D914D915C91BE
:10579000FC0160817181828193810E949837A5010B
:1057A00094010E9498382A966CAF7DAF8EAF9FAF60
:1057B0002A972CA13DA14EA15FA1CA01B9010E9467
:1057C000F03A9B01AC0160E070E080E090E40E9460
:1057D00098376B017C012BEA3AEA4AE25EE36CA15E
:1057E0007DA18EA19FA10E94F03A4B015C0120E0B7
:1057F00030E040E850E4C701B6010E9499379B01B0
:10580000AC01C501B4010E94F03A22966CAF7DAFA5
:105810008EAF9FAF229720E030E040E05FE3C7010A
:10582000B6010E94F03A26966CAF7DAF8EAF9FAF67
:10583000269718A222242394312CEEA9FFA9E21561
:10584000F30509F4E7CDF8A1FC3008F09EC0A301F0
:10585000920122966CAD7DAD8EAD9FAD22970E94D8
:10586000F03A6B017C012C8D3D8D4E8D5F8D26961F
:105870006CAD7DAD8EAD9FAD26970E94F03A9B0139
:10588000AC01C701B6010E9499377B016C01A301ED
:10589000920126966CAD7DAD8EAD9FAD26970E9490
:1058A000F03A4B015C012C8D3D8D4E8D5F8D229623
:1058B0006CAD7DAD8EAD9FAD22970E94F03A9B01FD
:1058C000AC01C501B4010E9498372B013C0128A10D
:1058D0002F5F28A3470156018C8E9D8EAE8EBF8E02
:1058E000A30192016EA57FA588A999A90E94993765
:1058F000E8A5F9A560837183828393832C8D3D8D08
:105900004E8D5F8D6AA97BA98CA99DA90E949937AC
:10591000AAADBBAD6D937D938D939C9313972A96FF
:105920002CAD3DAD4EAD5FAD2A97F8016081718120
:10593000828193810E949937D8016D937D938D93D5
:105940009C931397BE01635F7F4F8AEE96E00E949F
:10595000071F80916006811164CDBFEF2B1A3B0AAF
:105960006CCF2DEB37E346E055E3C701B6010E944B
:105970008E3818160CF49FCE2BED3FE049EC50E426
:10598000C701B6010E94993794CEB10190E080E042
:105990000E9440392CA13DA14EA15FA10E94F03A86
:1059A0006B017C010E9493386C8F7D8F8E8F9F8F4F
:1059B000C701B6010E94813B4B015C01AAA5BBA5B2
:1059C000CD90DD90ED90FC90F7FAF094F7F8F0941C
:1059D000ACADBDAD8D919D910D90BC91A02D88A3D6
:1059E00099A3AAA3BBA3A70196016C8D7D8D8E8D73
:1059F0009F8D0E94F03A2B013C0128A139A14AA1B8
:105A00005BA1C501B4010E94F03A9B01AC01C30146
:105A1000B2010E9499372B013C01A7019601C501F3
:105A2000B4010E94F03A6B017C0128A139A14AA17E
:105A30005BA16C8D7D8D8E8D9F8D0E94F03A9B01B8
:105A4000AC01C701B6010E9498376C8F7D8F8E8F95
:105A50009F8F18A245CF8D899E8984609E8B8D8BE8
:105A600080915F06823009F4DCCC0E94201E809178
:105A70006006811119C0FCA1F071FF2E109264061E
:105A80002CA123FB882780F90E94DE0286B1807258
:105A900090914506891719F184E00E9441020E9405
:105AA000571A80E00E94DE0280911A078093D9067F
:105AB000882311F40C949C210E94201E8091D90609
:105AC00090915F06833009F04DC0923029F088E054
:105AD0000E9451020E94571A1092D906DEC8B801DE
